101 091214847 2000784320601051334B094101Intercept Corporation  USFastCash             39      
5200USFastCash      1-877-675-5772 DR   1200078432PPDDEBIT     010606060106   1091214840000001
627086300012397077794        000000300044165          BAKER, TRESA            0091214840000001
6272514801810001491469       000000300044166          WILKERSON, SHERRY       0091214840000002
62706701114210000930598      000000300044167          HARRIS, JOHNNY          0091214840000003
6271110151591010119708703    000000300044168          ROBERTS, CORY           0091214840000004
6272670819274553209          000000300044169          SWEETING, DOMINIQUE     0091214840000005
6270210003229493876385       000000300044170          ASH, ROBIN              0091214840000006
6271220004962451342105       000000300044171          MONROE, MECHELLE        0091214840000007
62704210144676642253         000000300044172          ROGERS, LISA            0091214840000008
62705190376102523220394      000000300044173          SINSEL, SCOTT           0091214840000009
62707200032621773765         000000300044174          BRIDGES, BETTYE         0091214840000010
6272560749747000130620       000000300044175          ROSENBERG, MICHAEL      0091214840000011
6272211721862070012470       000000300044176          COLLETT, WENDY          0091214840000012
62702127272318000001342302   000000300044177          DATTORY, ATHENA         0091214840000013
6270520001139840409354       000000300044178          VICKERIE, MONTEL        0091214840000014
627111000025004810718737     000000300044179          DAVIS, TIMOTHY          0091214840000015
6273020759530000540867       000000300044180          PITT, MICHAEL           0091214840000016
6272514816140090454480       000000300044181          SCHOFIELD, KERRY        0091214840000017
6270631021520758758748926    000000300044182          SAMMS, GARY             0091214840000018
6271010066996700039527       000000300044183          HALE, SHIRLEY           0091214840000019
62705400003026079706         000000300044184          WRIGHT, CELENE          0091214840000020
6270312013607861329246       000000300044185          MURPHY, JAMES           0091214840000021
627322079353465627018        000000300044186          MASON, LEAH             0091214840000022
627072000915042356873        000000300044187          KINSEY, LINDA           0091214840000023
627264081179000002942607     000000300044188          HUGHES, MARITA          0091214840000024
6272670841311881816369       000000300044189          NELSON, JAMIKA          0091214840000025
6271210428823648383358       000000300044190          MILLER, KRISSY          0091214840000026
627272078679000108370        000000300044191          MICHAUD, MARIA          0091214840000027
6270313000129008840937       000000300044192          BONFIGLIO, ROSEMARIE    0091214840000028
6270260136737916649226       000000300044193          LEWIS, ANNMARIE         0091214840000029
6272670819274553209          000000300044194          SWEETING, DOMINIQUE     0091214840000030
6270210003229493876385       000000300044195          ASH, ROBIN              0091214840000031
6270620000190035850574       000000600044196          PINKARD, ERNEST         0091214840000032
627064000059151203887063     000000750044197          GOOCH, ALVIN            0091214840000033
627111000025005748422136     000000900044198          POLLOCK, SELEUCUS       0091214840000034
6271023010925751017327       000000600044199          LEONARD, JOYCE          0091214840000035
6270720008055403713984       000000600044200          THOMAS, DWAINE          0091214840000036
627036001808366162642        000000600044201          PARKER, DWIGHT          0091214840000037
6270630000472173471750       000000600044202          BYERS, ANDREKA          0091214840000038
6271220006610464340419       000000900044203          ZENAROSA, MARCELLAMELA  0091214840000039
627064201450101463945        000000450044204          MILLER, JOBETH          0091214840000040
6270815008626378167          000000600044205          HOLMES, LUJWANA         0091214840000041
627114000093922018942        000000600044206          WILSON, BENJAMIN        0091214840000042
6270759005750029569831       000000750044207          JULSON, SHARI           0091214840000043
6273222857520620152199       000000600044208          HOUSTON, RANDY          0091214840000044
627044000037687989285        000000600044209          HARTMAN, DENNIS         0091214840000045
627052001633003924575689     000000900044210          WHEATLEY, LANCE         0091214840000046
6270540000305301752559       000000750044211          JONES, TAMARA           0091214840000047
627036001808366846160        000000450044212          CAMPBELL, APRIL         0091214840000048
6272520707521469827          000000600044213          ROWLAND, REBECCA        0091214840000049
6270815177290150514901       000000900044214          KAUFFMAN, JEFF          0091214840000050
6270116005670402878          000000600044215          BURNOR, TAMMY           0091214840000051
6271119937761961689983       000000900044216          JENKINS, GAYLENE        0091214840000052
6271019013961008331          000000900044217          WHEELER, FRANK          0091214840000053
62708430703386084481         000000750044218          LANE, ANITA             0091214840000054
6270631132228032727334       000000900044219          VERDEGAAL, HERMAN       0091214840000055
6272550754952562283154484    000000600044220          COOKE, KATHRYN          0091214840000056
627053100465472228783        000000450044221          SEWARD, ROBYN           0091214840000057
627053100465472228783        000000500044222          SEWARD, ROBYN           0091214840000058
6270114004950032982277       000001500044223          PRICE, RENEE            0091214840000059
6271070021922271019222       000000450044224          SAWIN, RICHARD          0091214840000060
6271070021922271019222       000000500044225          SAWIN, RICHARD          0091214840000061
627091215710100634           000000450044226          BAILEY, TIM             0091214840000062
627091215710100634           000000500044227          BAILEY, TIM             0091214840000063
627264081205000003275400     000001050044228          WATKINS, JACKIE         0091214840000064
627264081205000003275400     000000500044229          WATKINS, JACKIE         0091214840000065
6270212000251010043945852    000001200044230          LARUSSO, TRACY          0091214840000066
6273221721110002928110       000000750044231          GUTIERREZ, CECILIA      0091214840000067
6271220002470378420426       000000900044232          MURRAY, ROD             0091214840000068
62702100008908377582         000001200044233          PENA, URSULA            0091214840000069
627101001018110137424        000000150044234          KAMMAN, KENNETH         0091214840000070
627101001018110137424        000000500044235          KAMMAN, KENNETH         0091214840000071
6272960761528101396441       000000300044236          GRAHAM, LORNA           0091214840000072
6272960761528101396441       000000500044237          GRAHAM, LORNA           0091214840000073
6272550773702363832024       000001050044238          CHAPMAN, CHRISTOPHER    0091214840000074
6272550773702363832024       000000500044239          CHAPMAN, CHRISTOPHER    0091214840000075
6270119005719524809899       000000900044240          CICCIMARRA, TONI        0091214840000076
6270119005719524809899       000000500044241          CICCIMARRA, TONI        0091214840000077
6272360876640097236002       000000750044242          ROBERTS, DAWN           0091214840000078
6272540745360017185000       000001200044243          SNEED, ANGELA           0091214840000079
6272430738520022709673       000000900044244          EGERCIC, DENISE         0091214840000080
6270550027071000014439920    000000450044245          MORRISON, FABIAN        0091214840000081
6270550027071000014439920    000000500044246          MORRISON, FABIAN        0091214840000082
62706200118621599867         000000300044247          DAVIS, JOYCELYN         0091214840000083
62706200118621599867         000000500044248          DAVIS, JOYCELYN         0091214840000084
6272113705458240373881       000000900044249          ROBINSON-HOUDE, KIM     0091214840000085
6272550778887001159373       000000750044250          MASON, BRIAN            0091214840000086
6270212000251010084287537    000000750044251          BANKS, JANELLE          0091214840000087
6270531085801010030995608    000001200044252          HODGES, DERWIN          0091214840000088
627263178478120713           000000150044253          JAMES, JULIA            0091214840000089
627263178478120713           000000500044254          JAMES, JULIA            0091214840000090
6270119005710009079548       000000750044255          AMARO, LUIS             0091214840000091
627021000021102074383365     000001050044256          SAGER, ANTHONY          0091214840000092
627021000021102074383365     000000500044257          SAGER, ANTHONY          0091214840000093
6270310005031010026664215    000000600044258          REID, REGINA            0091214840000094
62726318251687243            000000150044259          WATSON, TERRANCE        0091214840000095
62726318251687243            000000500044260          WATSON, TERRANCE        0091214840000096
6270530002191010026576455    000000150044261          PACE, KELLY             0091214840000097
6270530002191010026576455    000000500044262          PACE, KELLY             0091214840000098
6272711880810013049630       000001200044263          BLYTHE, RICHARD         0091214840000099
627074000010700050128418     000000900044264          BRENNAN, GLORIA         0091214840000100
627074000010700050128418     000000500044265          BRENNAN, GLORIA         0091214840000101
6273222737224939065340308    000000150044266          REESE, TERRIE           0091214840000102
6273222737224939065340308    000000500044267          REESE, TERRIE           0091214840000103
627061000052003341857392     000000900044268          MARKEY, TIFFANY         0091214840000104
627061000052003341857392     000000500044269          MARKEY, TIFFANY         0091214840000105
627074000010180030315386     000000750044270          MOATS, MARY             0091214840000106
6270749002758504700538       000000750044271          VANWIE, DAVID           0091214840000107
6273222716274893251937       000000900044272          BURMAN, PATRICIA        0091214840000108
627021001088691720622        000000450044273          SHAH, CHANDNI           0091214840000109
6273120809416689388          000000900044274          GIBBS, AHMED            0091214840000110
6273120809416689388          000000500044275          GIBBS, AHMED            0091214840000111
62712310371679591764         000001200044276          LOWERY, RUTH            0091214840000112
62732518236010200000173702   000000900044277          BAINES, MICHAEL         0091214840000113
6271131935320324963247       000000600044278          CALIXTO, MARIE          0091214840000114
6273222716273932632868       000000750044279          ROWLEY, PAMELA          0091214840000115
6273222716273932632868       000000500044280          ROWLEY, PAMELA          0091214840000116
627022000020834144506        000000150044281          SCOTT, TERRANCE         0091214840000117
627022000020834144506        000000500044282          SCOTT, TERRANCE         0091214840000118
62711301054719417425         000000150044283          ROBERTSON, TOYAQUEE     0091214840000119
62711301054719417425         000000500044284          ROBERTSON, TOYAQUEE     0091214840000120
627122101706004672386763     000000150044285          MAY, CANDACE            0091214840000121
627122101706004672386763     000000500044286          MAY, CANDACE            0091214840000122
6271023001290901745224       000000150044287          EASLING, MARSHALL       0091214840000123
6271023001290901745224       000000500044288          EASLING, MARSHALL       0091214840000124
627211176590185270           000000300044289          GREEN, MARY             0091214840000125
627211176590185270           000000500044290          GREEN, MARY             0091214840000126
627263182914374336           000001350044291          HALL, JAMES             0091214840000127
627263182914374336           000000500044292          HALL, JAMES             0091214840000128
6272560749747000707534       000000150044293          CANTU, CARMEN           0091214840000129
6272560749747000707534       000000500044294          CANTU, CARMEN           0091214840000130
6272810814794587532          000000900044295          KANEVSKY, LAURIE        0091214840000131
6270514042605139702486       000001500044296          WALKER, DIANNA          0091214840000132
6270514042605139702486       000000500044297          WALKER, DIANNA          0091214840000133
627111001150190611561465     000000900044298          MUNOZ, DAVID            0091214840000134
627122400724000323244186     000000150044299          STEWART, GARY           0091214840000135
627122400724000323244186     000000500044300          STEWART, GARY           0091214840000136
6272759828011415256          000000900044301          MILLIGAN, FRANCIS       0091214840000137
6272759828011415256          000000500044302          MILLIGAN, FRANCIS       0091214840000138
627081000032003483503985     000000300044303          GROH, ANNEMARIE         0091214840000139
627081000032003483503985     000000500044304          GROH, ANNEMARIE         0091214840000140
627041202582130103659384     000000750044305          HOLMES, REGINALD        0091214840000141
6272560749747000603667       000000450044306          WESTERMAN, LISETTE      0091214840000142
6271070021926421027183       000000150044307          LUJAN, GERRI            0091214840000143
6271070021926421027183       000000500044308          LUJAN, GERRI            0091214840000144
627111000614697639706        000000300044309          CLARK, LAKISHA          0091214840000145
627111000614697639706        000000500044310          CLARK, LAKISHA          0091214840000146
627111000614658719307        000000900044311          MARTINEZ, VERONICA      0091214840000147
6271250085478428331709       000000900044312          HARRIS, FLORA           0091214840000148
6271250085478428331709       000000500044313          HARRIS, FLORA           0091214840000149
6270519003950044083624       000000600044314          ALFORD, JOHN            0091214840000150
627011301798402374201        000001350044315          ROSADO, RICHARD         0091214840000151
6270839123932156954          000001200044316          WALTS, REBECCA          0091214840000152
627103000017003041729910     000000600044317          MILLER, DENNIS          0091214840000153
6272711837015325342          000000150044318          REDDISH, JOLENE         0091214840000154
6272711837015325342          000000500044319          REDDISH, JOLENE         0091214840000155
62706301392420379863         000000750044320          MANNING, STEPHANIE      0091214840000156
62706301392420379863         000000500044321          MANNING, STEPHANIE      0091214840000157
6273020751281080001277250    000000300044322          KONDROTIS, SONCEY       0091214840000158
6273020751281080001277250    000000500044323          KONDROTIS, SONCEY       0091214840000159
627111000025005749481927     000001050044324          RUTHERFORD, DANIELLE    0091214840000160
627111000025005749481927     000000500044325          RUTHERFORD, DANIELLE    0091214840000161
627082907888336521           000001350044326          WHITAKER, JOHN          0091214840000162
627082907888336521           000000500044327          WHITAKER, JOHN          0091214840000163
62732117780372300000395120   000000450044328          LALONDE, JULIANNE       0091214840000164
62732117780372300000395120   000000500044329          LALONDE, JULIANNE       0091214840000165
62702100008942303069         000000450044330          WHITT, LARRY            0091214840000166
627022000020289905702        000000150044331          RODGERS, CHASITY        0091214840000167
627022000020289905702        000000500044332          RODGERS, CHASITY        0091214840000168
6272214736520000103626488    000000450044333          WHATLEY, ANGELINE       0091214840000169
6272214736520000103626488    000000500044334          WHATLEY, ANGELINE       0091214840000170
6270719059432006028          000000900044335          SKIBBE, DEBORAH         0091214840000171
6270719059432006028          000000500044336          SKIBBE, DEBORAH         0091214840000172
6270670084149601153670       000000900044337          PLUMMER, JOSEPH         0091214840000173
6270670084149601153670       000000500044338          PLUMMER, JOSEPH         0091214840000174
6270514042605133516168       000000150044339          NASH, TODD              0091214840000175
6270514042605133516168       000000500044340          NASH, TODD              0091214840000176
6270631006884200101606       000000150044341          HUMPHREY, JENNIFER      0091214840000177
6270631006884200101606       000000500044342          HUMPHREY, JENNIFER      0091214840000178
627125000105153555241311     000000600044343          BROWN, WILLIAM          0091214840000179
6270210003229459940072       000000600044344          MENDOZA, JOHN           0091214840000180
6270210003229459940072       000000500044345          MENDOZA, JOHN           0091214840000181
6271220006610433707113       000001500044346          HEALY, MARK             0091214840000182
62702100008913581537         000001050044347          WILLIAMS, JOYCE         0091214840000183
62702100008913581537         000000500044348          WILLIAMS, JOYCE         0091214840000184
6271221052783061888768       000000600044349          MASSEY, SHEREE          0091214840000185
627322079353415300011        000000300044350          ROBINSON, JASMINE       0091214840000186
627322079353415300011        000000500044351          ROBINSON, JASMINE       0091214840000187
6270310005031010093010012    000000150044352          SHEERER, DONNA          0091214840000188
6270310005031010093010012    000000500044353          SHEERER, DONNA          0091214840000189
6272110701751302793710       000000300044354          LAST, WANDA             0091214840000190
6272110701751302793710       000000500044355          LAST, WANDA             0091214840000191
6270312076078000559441       000000300044356          OCONNELL, NANCY         0091214840000192
627091400525923753           000000300044357          FISCHER, TRINA          0091214840000193
627091400525923753           000000500044358          FISCHER, TRINA          0091214840000194
6272560749742058609716       000000750044359          KRAMER, NANCY           0091214840000195
6272560749742058609716       000000500044360          KRAMER, NANCY           0091214840000196
6272550778880000046644       000000750044361          SNIPES, MARGUERITE      0091214840000197
6272550778880000046644       000000500044362          SNIPES, MARGUERITE      0091214840000198
62711100115005601884618      000001250044363          BREITLING, JOANN        0091214840000199
627052001633003931838733     000000900044364          GARNETT, LATRONA        0091214840000200
62707490859414085324         000000300044365          BERRY, EARNEST          0091214840000201
62707490859414085324         000000500044366          BERRY, EARNEST          0091214840000202
6272711880812844130920       000001200044367          ZINK, PATTY             0091214840000203
6270631021520049011641107    000000750044368          NOVITCH, KELLY          0091214840000204
6270631021520049011641107    000000500044369          NOVITCH, KELLY          0091214840000205
6270310005031020001062220    000000450044370          MOFFA, JOHN             0091214840000206
6270310005031020001062220    000000500044371          MOFFA, JOHN             0091214840000207
6273211777229001615963       000000900044372          LEVI, AUTASIA           0091214840000208
627064000020003788556459     000000750044373          STONE, CONNIE           0091214840000209
627064000020003788556459     000000500044374          STONE, CONNIE           0091214840000210
627021206249062016261        000000600044375          DUNN, HEATHER           0091214840000211
6270433012164602798810       000000150044376          OGLE, DANIEL            0091214840000212
6270433012164602798810       000000500044377          OGLE, DANIEL            0091214840000213
6272360829441010084037850    000000750044378          WAGENFELD, ROBIN        0091214840000214
6272360829441010084037850    000000500044379          WAGENFELD, ROBIN        0091214840000215
627241282739002555092        000000750044380          GODDARD, NANCY          0091214840000216
627241282739002555092        000000500044381          GODDARD, NANCY          0091214840000217
6272910700019852216776       000000900044382          BELL, NICHELLE          0091214840000218
6270212003399408694123       000000900044383          BIGGIO, ERIC            0091214840000219
6270212021620950116939       000001200044384          PLATT, LARRY            0091214840000220
6270212021620950116939       000000500044385          PLATT, LARRY            0091214840000221
62727248471300922021103      000000900044386          UNVERSAW, KAROLYN       0091214840000222
6270212003394043010762       000000900044387          THOMPSON, SHERYL        0091214840000223
6270212003394043010762       000000500044388          THOMPSON, SHERYL        0091214840000224
627072402157200120047        000000900044389          HALL, MATTHEW           0091214840000225
63727248165167261301         000000750044390          ROZELLE, KAREN          0091214840000226
63727248165167261301         000000500044391          ROZELLE, KAREN          0091214840000227
627082903439117439           000000150044392          EDGE, WESLEY            0091214840000228
627082903439117439           000000500044393          EDGE, WESLEY            0091214840000229
6272214736529973463277       000000450044394          PANIAGUA, SAIRA         0091214840000230
6272214736529973463277       000000500044395          PANIAGUA, SAIRA         0091214840000231
6271210428825255352907       000000450044396          KEANON, MARIO           0091214840000232
6271210428825255352907       000000500044397          KEANON, MARIO           0091214840000233
6271220006610780713102       000001500044398          URADNICEK, BRIAN        0091214840000234
62712320228003500454         000000450044399          MCGUIRE, KAY            0091214840000235
62712320228003500454         000000500044400          MCGUIRE, KAY            0091214840000236
627055002707701886307        000000300044401          WILLIAMS, ELTON         0091214840000237
627055002707701886307        000000500044402          WILLIAMS, ELTON         0091214840000238
6270213000199388898742       000000900044403          WILLIAMS, KATHY         0091214840000239
6271220004965170003340       000000750044404          GALVEZ, EMMA            0091214840000240
6271011083194144384          000000450044405          ELLISON, RAYMOND        0091214840000241
6271011083194144384          000000500044406          ELLISON, RAYMOND        0091214840000242
6271070024483200033492       000000750044407          MARQUEZ, EMILY          0091214840000243
6271230068000297648362       000000900044408          DENTON, RICK            0091214840000244
6270865006343958035          000000300044409          JORDAN, RICHARD         0091214840000245
6270865006343958035          000000500044410          JORDAN, RICHARD         0091214840000246
6270532077661010001046272    000001500044411          CARVER, DAVID           0091214840000247
6270670064321010087598537    000000600044412          GRANT, MARKIVA          0091214840000248
6270670064321010087598537    000000500044413          GRANT, MARKIVA          0091214840000249
62712500002478481520         000000750044414          PASCUA, JAYNA           0091214840000250
62712500002478481520         000000500044415          PASCUA, JAYNA           0091214840000251
627103112976536784151        000000600044416          CASE, LEONARD           0091214840000252
627071103619002872840920     000000750044417          MACEDO, TERESA          0091214840000253
6270531008503203057860       000000300044418          KRING, TIMOTHY          0091214840000254
6270531008503203057860       000000500044419          KRING, TIMOTHY          0091214840000255
627111000025004810343704     000000750044420          WOODLING, CHRISTINE     0091214840000256
6270312076078029402966       000000450044421          SUNDERMIER, DIANNE      0091214840000257
6272211721860480514167       000000600044422          CUDDY, GALE             0091214840000258
6272211721860480514167       000000500044423          CUDDY, GALE             0091214840000259
627123000220153656419543     000001200044424          PHETSOMPHOU, KELLY      0091214840000260
6270712027560530387          000000900044425          BROWN, THERESA          0091214840000261
6270712027560530387          000000500044426          BROWN, THERESA          0091214840000262
6272550781591013302037547    000000900044427          BLACKWELL, KEESHA       0091214840000263
6272550781591013302037547    000000500044428          BLACKWELL, KEESHA       0091214840000264
6270212003399512071487       000000750044429          WILLIAMS, MARIAN        0091214840000265
6270212003399512071487       000000500044430          WILLIAMS, MARIAN        0091214840000266
62721177293623335025         000000900044431          DEMOND, MELODY          0091214840000267
627253177887128001225834     000000900044432          WIGGINS, JAMAHL         0091214840000268
627044000037656285186        000000600044433          LALLY, KHORREN          0091214840000269
627044000037656285186        000000500044434          LALLY, KHORREN          0091214840000270
6272560749747001106751       000000600044435          CAMEL, AMY              0091214840000271
627011000138004601515796     000000900044436          WHITE, NICOLE           0091214840000272
627011501598482932425        000000750044437          BRADY, JOSEPH           0091214840000273
6270654001371598472015       000001050044438          HARRIS, DIANNE          0091214840000274
6270654001371598472015       000000500044439          HARRIS, DIANNE          0091214840000275
6272514816140057967380       000000750044440          WILLIAMS, TONYA         0091214840000276
6270630000211010050529326    000000600044441          WHITE, BARBARA          0091214840000277
62726307893418000002574572   000000300044442          OLIN, SANDRA            0091214840000278
62726307893418000002574572   000000500044443          OLIN, SANDRA            0091214840000279
627121122676153455018280     000000300044444          WHITE, KIMIKO           0091214840000280
627121122676153455018280     000000500044445          WHITE, KIMIKO           0091214840000281
6270514049018000984006       000000600044446          BURKS, AMY              0091214840000282
6270514049018000984006       000000500044447          BURKS, AMY              0091214840000283
62728207502892695023         000000450044448          FELKNER, SANDRA         0091214840000284
62728207502892695023         000000500044449          FELKNER, SANDRA         0091214840000285
627021001088695701096        000000600044450          OMOTOSO, ABIMBOLA       0091214840000286
627021001088695701096        000000500044451          OMOTOSO, ABIMBOLA       0091214840000287
6270212000251010100419687    000000900044452          SHAYLAND, PATRICIA      0091214840000288
6272540754090000202671       000000300044453          THOMAS, KEENA           0091214840000289
6272540754090000202671       000000500044454          THOMAS, KEENA           0091214840000290
6270213131037620173006       000000600044455          WALSH, JOSEPH           0091214840000291
6272110701751302938808       000001200044456          SCHOFIELD, STEVEN       0091214840000292
6271251057411023017684       000000600044457          DADE, MICHELLE          0091214840000293
627061300367100178389        000000600044458          HERNANDEZ, DENISE       0091214840000294
6273222716271800132754       000000600044459          SUZARA, TAMI            0091214840000295
627043000122872674475        000001200044460          AUBELE, EMILY           0091214840000296
6270670064321010036055225    000000450044461          GEHRET, MARYPAT         0091214840000297
6270670064321010036055225    000000500044462          GEHRET, MARYPAT         0091214840000298
6272410704173930306703       000001500044463          HAMILTON, MARK          0091214840000299
627102000021103671068551     000000900044464          NEIDLINGER, CHRIS       0091214840000300
6271210428820509291001       000000450044465          LEASAU, GLORIA          0091214840000301
6271210428820509291001       000000500044466          LEASAU, GLORIA          0091214840000302
627052100987006112409        000000900044467          JOHNSON, TIMOTHY        0091214840000303
627052100987006112409        000000500044468          JOHNSON, TIMOTHY        0091214840000304
62731117509313488424         000000750044469          RODRIGUEZ, BRYANANDANG  0091214840000305
62731117509313488424         000000500044470          RODRIGUEZ, BRYANANDANG  0091214840000306
6270710005055305031592       000000450044471          TITUS, ANYA             0091214840000307
6270710005055305031592       000000500044472          TITUS, ANYA             0091214840000308
627063100277003672976682     000000450044473          SMITH, ONTERIO          0091214840000309
627063100277003672976682     000000500044474          SMITH, ONTERIO          0091214840000310
627051000017004130601375     000000750044475          KRUMWIEDE, KRISTAL      0091214840000311
6270620000801000704256683    000000900044476          WATSON, ROBERT          0091214840000312
627091000022104799374434     000001200044477          SPOONER, HOPE           0091214840000313
6273213790707007065406       000000600044478          AKAMA, TASHA            0091214840000314
6273213790707007065406       000000500044479          AKAMA, TASHA            0091214840000315
6271210003581130507209       000000150044480          STEVENS, CLARA          0091214840000316
6271210003581130507209       000000500044481          STEVENS, CLARA          0091214840000317
627021000021109000195565     000000900044482          GRANT, LISA             0091214840000318
627113000023005749021028     000000750044483          WASHINGTON, HEATHER     0091214840000319
6271221052789712196683       000000450044484          VALDEZ, MIKE            0091214840000320
6271221052789712196683       000000500044485          VALDEZ, MIKE            0091214840000321
6270532000191005015405461    000000450044486          GILLMER, DON            0091214840000322
6270532000191005015405461    000000500044487          GILLMER, DON            0091214840000323
62708200764981276936         000000150044488          WILLIAMS, DEATRICE      0091214840000324
62708200764981276936         000000500044489          WILLIAMS, DEATRICE      0091214840000325
627051000017004129732365     000000300044490          TUCKER, MARC            0091214840000326
627051000017004129732365     000000500044491          TUCKER, MARC            0091214840000327
6271222216864000710511       000001050044492          WELLS, JENNIFER         0091214840000328
6271119006593650418013       000000900044493          GINGOLPH, CHAD          0091214840000329
6271119006593650418013       000000500044494          GINGOLPH, CHAD          0091214840000330
6271110006140252029871       000000750044495          DEBOER, LINDA           0091214840000331
62727199240017000004664869   000000600044496          JONES, GEANEAN          0091214840000332
627272485107710900331327     000000150044497          SWORD, LISA             0091214840000333
627272485107710900331327     000000500044498          SWORD, LISA             0091214840000334
6270312013606618870          000000150044499          WALL, RYAN              0091214840000335
6270312013606618870          000000500044500          WALL, RYAN              0091214840000336
6273020761850002703245       000000750044501          PORTER, KAYE            0091214840000337
627091200592328880           000000150044502          MOORE, DON              0091214840000338
627091200592328880           000000500044503          MOORE, DON              0091214840000339
6273222716274880593491       000001050044504          MARTINEZ, LOUIS         0091214840000340
6273222716277800016063       000000750044505          KREBS, HANNES           0091214840000341
6273222716277800016063       000000500044506          KREBS, HANNES           0091214840000342
6270631075131010109930280    000000750044507          DECKER, SAMUEL          0091214840000343
6270631075131010109930280    000000500044508          DECKER, SAMUEL          0091214840000344
627021000021668014905965     000000150044509          PETGRAVE, PHIL          0091214840000345
627021000021668014905965     000000500044510          PETGRAVE, PHIL          0091214840000346
627291880411454831108        000000600044511          TAVES, JULIE            0091214840000347
627291880411454831108        000000500044512          TAVES, JULIE            0091214840000348
6271031006162200173187       000000150044513          JOHNSON, COY            0091214840000349
6271031006162200173187       000000500044514          JOHNSON, COY            0091214840000350
6270421026940110163301       000000900044515          TYREE, SUSAN            0091214840000351
6271070021921356263127       000000150044516          ARTHUR, PRISCILLA       0091214840000352
6271070021921356263127       000000500044517          ARTHUR, PRISCILLA       0091214840000353
6272560784461915281024       000000450044518          ANTHONY, THEODORA       0091214840000354
62727248462906549221         000000600044519          SYMONS, NICOLE          0091214840000355
6270914085980600309315       000000150044520          TASSLER, MICHAEL        0091214840000356
6270914085980600309315       000000500044521          TASSLER, MICHAEL        0091214840000357
6270212000251010051357982    000000600044522          JENNINGS, ERICA         0091214840000358
6273213707650130308136       000000300044523          KALI, DOUGLAS           0091214840000359
6273213707650130308136       000000500044524          KALI, DOUGLAS           0091214840000360
6270212003390036837837       000000600044525          SNOWDEN, FASYLLA        0091214840000361
627052001633003923451429     000000150044526          RASH, TERRAH            0091214840000362
627052001633003923451429     000000500044527          RASH, TERRAH            0091214840000363
627072405620411348           000000450044528          MORONEY, DIANA          0091214840000364
62712210002424588996         000001500044529          DAVID, CLIFF            0091214840000365
62731407426921724156         000000300044530          SMITH, ROCHELL          0091214840000366
6270631052851461230          000000900044531          BAUER, JEANNE           0091214840000367
6272660865543106052975       000000600044532          RAWLINS, TROY           0091214840000368
62707190287811191396         000000900044533          KMIEC, ALEXANDER        0091214840000369
6272313726911961026600       000000600044534          KELLY, JASON            0091214840000370
6272550719811843247518       000000300044535          EDER, KATHLEEN          0091214840000371
6272550719811843247518       000000500044536          EDER, KATHLEEN          0091214840000372
6272111701011991282875       000000600044537          BASSAT, ANGELA          0091214840000373
627113000023005744087766     000000150044538          ABRAHAMSEN, MARY        0091214840000374
627113000023005744087766     000000500044539          ABRAHAMSEN, MARY        0091214840000375
6270110001389499512953       000001200044540          MCILHARGEY, MICHAEL     0091214840000376
627111000025001632331064     000000600044541          ALLEN, TANESHA          0091214840000377
627111301614520039           000000300044542          BREWER, TINA            0091214840000378
627111301614520039           000000500044543          BREWER, TINA            0091214840000379
62722237105406790055204      000000900044544          FUHR, PATRICKT          0091214840000380
6273140885302600500025       000000900044545          WHITE, PAUL             0091214840000381
6270212000251030004511577    000002250044546          PISER, MICHAEL          0091214840000382
6270119005710071660992       000003350044547          BERNARDO, LORNA         0091214840000383
6271021031192182493          000000750044548          LOPEZ, KATHY            0091214840000384
6270212727234890297950       000002100044549          ROTHWELL, EDWARD        0091214840000385
6273222716271804615889       000000450044550          GREGOR, RHEVA           0091214840000386
6273222716271804615889       000000500044551          GREGOR, RHEVA           0091214840000387
6273030879952121100136       000000600044552          SHELTON, MICHELLE       0091214840000388
6273213791060001637503       000001200044553          POEPOE, ANTHONYL        0091214840000389
6270531011215199447167       000000450044554          PELL, TERRY             0091214840000390
6273241701400310048528       000000750044555          RONK, JAMES             0091214840000391
6270550032011010114835914    000000450044556          LANGDON, MARTIN         0091214840000392
6270550032011010114835914    000000500044557          LANGDON, MARTIN         0091214840000393
627323380261789507232401     000000450044558          GAEDE, JOE              0091214840000394
627323380261789507232401     000000500044559          GAEDE, JOE              0091214840000395
62730708366524069312         000000450044560          DAMRON, SOPHENIA        0091214840000396
6271210003581817802622       000000450044561          PETIFER, RYAN           0091214840000397
6271210003581817802622       000000500044562          PETIFER, RYAN           0091214840000398
6272311768550219540042       000002050044563          WICKES, STEPHEN         0091214840000399
627107000327004274525139     000000900044564          PLUMMER, HERMAN         0091214840000400
6271210428820276333853       000003350044565          LEDESMA, VANGEL         0091214840000401
6271210003580695707116       000000600044566          MANNING, ROBERT         0091214840000402
627052001633003934265617     000000900044567          HOHMAN, NICHOLAS        0091214840000403
6272739706400100232966       000000450044568          DELLWO, MARY            0091214840000404
62711190744523073722         000002550044569          TREVINO, WILLIAM        0091214840000405
6270360761506209693672       000006700044570          CHERRY, PHILIP          0091214840000406
6270653002797000041517       000001250044571          BROWN, JACQUELINE       0091214840000407
627255074111220220859        000000450044572          COBB, ARLENE            0091214840000408
627255074111220220859        000000500044573          COBB, ARLENE            0091214840000409
627064000020003789386725     000004900044574          CHANDLER, LYNN          0091214840000410
6270313000129010370348       000000150044575          PETREQUIN, DENA         0091214840000411
6270313000129010370348       000000500044576          PETREQUIN, DENA         0091214840000412
6272724715486883432843       000003350044577          MATTHEWS, DEBORAH       0091214840000413
6273210700079624004959       000000300044578          CARO, YVETTE            0091214840000414
6273210700079624004959       000000500044579          CARO, YVETTE            0091214840000415
627113000023005781142143     000002550044580          BEDBURY, RYAN           0091214840000416
6270520001139834941982       000004150044581          WERTMAN, MELISSA        0091214840000417
627044000037684770654        000000950044582          HARRIS, DEYONA          0091214840000418
627111000025005140133256     000000450044583          CARLIN, DAVID           0091214840000419
627111000025005140133256     000000500044584          CARLIN, DAVID           0091214840000420
6270212003394760014889       000002050044585          BROWNING, ANGELA        0091214840000421
6271119212302290229          000002650044586          YOUNG, SHERI            0091214840000422
6270514042605237949058       000000150044587          LAPE, ANGELIQUE         0091214840000423
6270514042605237949058       000000500044588          LAPE, ANGELIQUE         0091214840000424
62707200032622855345         000000750044589          JACKSON, TONY           0091214840000425
62705310219131606            000001050044590          PUCKETT, DON            0091214840000426
6270530002191068992182747    000000450044591          BENNETT, BENJAMIN       0091214840000427
6270530002191068992182747    000000500044592          BENNETT, BENJAMIN       0091214840000428
6272560749740626345722       000000300044593          VARIAS, ENRICO          0091214840000429
6272560749740626345722       000000500044594          VARIAS, ENRICO          0091214840000430
6271011083192122537          000000300044595          KELLEY, SHARHONDA       0091214840000431
6271011083192122537          000000500044596          KELLEY, SHARHONDA       0091214840000432
6370212016391110068500       000000150044597          CLARK, KYSHAD           0091214840000433
6370212016391110068500       000000500044598          CLARK, KYSHAD           0091214840000434
627053100300003339713656     000002050044599          BURDETTE, STACY         0091214840000435
6270653002791007274319       000001250044600          LARD, SANDRA            0091214840000436
627111000614685990681        000002650044601          LANGFORD, SUE           0091214840000437
6270510014141053049914213    000000150044602          PACE, CRAIG             0091214840000438
6270510014141053049914213    000000500044603          PACE, CRAIG             0091214840000439
6271221052785839803979       000000900044604          MOON, MARY              0091214840000440
6270530002191010097956428    000001450044605          HIRNIAK, PEGGY          0091214840000441
627063000047005486508862     000000300044606          WATERS, GERALD          0091214840000442
627063000047005486508862     000000500044607          WATERS, GERALD          0091214840000443
6271049057424000200          000004150044608          GARREN, FRANKIE         0091214840000444
627022306818914307509        000002050044609          SPEZZANO, MICHAEL       0091214840000445
6271130084654442539          000002050044610          NELSON, DAVID           0091214840000446
627122101706004655954992     000000300044611          NICHOLSON, TIMOTHY      0091214840000447
627122101706004655954992     000000500044612          NICHOLSON, TIMOTHY      0091214840000448
6271230068005178037239       000000600044613          DRAKE, KATHLEEN         0091214840000449
627063100277003766362296     000002350044614          FLORES, SHALON          0091214840000450
627111906271424744712        000002950044615          GAINER, ALISHA          0091214840000451
6272360756894400000834       000002350044616          SHERIDAN, LISA          0091214840000452
627103900036804480137        000000150044617          GIBSON, PENNIE          0091214840000453
627103900036804480137        000000500044618          GIBSON, PENNIE          0091214840000454
6270653019486120006025       000000450044619          CAGE, PATRICE           0091214840000455
6270653019486120006025       000000500044620          CAGE, PATRICE           0091214840000456
627021001088705705447        000000750044621          GAINEY, MARY            0091214840000457
627021001088705705447        000000500044622          GAINEY, MARY            0091214840000458
627071000013656216249        000001700044623          WILLIAMS, PRINCESS      0091214840000459
627122100024665031779        000000450044624          MARQUEZ, DARIN          0091214840000460
627122100024665031779        000000500044625          MARQUEZ, DARIN          0091214840000461
6270550032011010123814722    000002650044626          LEWIS, THEODORA         0091214840000462
627022000020852288107        000002950044627          HEY, CRYSTAL            0091214840000463
627222382551010070019        000000150044628          CARLO, JULIE            0091214840000464
627222382551010070019        000000500044629          CARLO, JULIE            0091214840000465
6271210003580667440300       000002050044630          BATEMAN, DAVID          0091214840000466
6270312013607859860061       000002350044631          MURRAY, CHANDRA         0091214840000467
62711301125851723774         000002950044632          HAMILTON, EDWARD        0091214840000468
627042000013130101588676     000002050044633          HENDERSON, KEISHA       0091214840000469
6273250707604892283494       000000750044634          SUYAMA, RYAN            0091214840000470
6273250707604892283494       000000500044635          SUYAMA, RYAN            0091214840000471
6270910000191006127326       000000750044636          JONES, DAVID            0091214840000472
6270910000191006127326       000000500044637          JONES, DAVID            0091214840000473
6270910000190229291216       000001750044638          CEYNAR, RICHARD         0091214840000474
6271119006597961206831       000000150044639          MADDEN, KATHERINE       0091214840000475
6271119006597961206831       000000500044640          MADDEN, KATHERINE       0091214840000476
627255077833283530           000000750044641          SIMPSON, KELLY          0091214840000477
627255077833283530           000000500044642          SIMPSON, KELLY          0091214840000478
6270212003394710012785       000001800044643          DEPAZ, XIOMARA          0091214840000479
627101106942610053           000000600044644          CROSBY, EDITH           0091214840000480
627101106942610053           000000500044645          CROSBY, EDITH           0091214840000481
62731407426921129118         000002650044646          GOLDBERG, ALLEN         0091214840000482
627255077736207421           000000750044647          ALEXANDER, JANET        0091214840000483
627255077736207421           000000500044648          ALEXANDER, JANET        0091214840000484
627111000025004780650365     000000900044649          FOSTER, TAWANA          0091214840000485
6270360761506212459588       000002950044650          REESE, JAMES            0091214840000486
62706100005203269692341      000000600044651          BLANCO, NETTLEN         0091214840000487
62706550368113743535         000002050044652          JAMES, TABATHA          0091214840000488
62706109197711002936729      000000900044653          ALLISON, KIMBERLY       0091214840000489
627063000047005480357297     000000450044654          BIAS, TELMA             0091214840000490
627063000047005480357297     000000500044655          BIAS, TELMA             0091214840000491
6270312013607850571816       000000450044656          KUDLA, MICHAEL          0091214840000492
6270312013607850571816       000000500044657          KUDLA, MICHAEL          0091214840000493
627063100277003770115581     000000750044658          MORAN, KELLY            0091214840000494
627063100277003770115581     000000500044659          MORAN, KELLY            0091214840000495
627054001204002011513041     000000600044660          WALLACE, IVY            0091214840000496
627054001204002011513041     000000500044661          WALLACE, IVY            0091214840000497
6271070053192505720205       000000450044662          BUCKNER, MARISSA        0091214840000498
6271070053192505720205       000000500044663          BUCKNER, MARISSA        0091214840000499
6270710000133109577          000000750044664          MIMS, BARBARA           0091214840000500
6270710000133109577          000000500044665          MIMS, BARBARA           0091214840000501
6271250085473904026071       000000600044666          RAINES, SONIA           0091214840000502
6271250085473904026071       000000500044667          RAINES, SONIA           0091214840000503
6270312013607857097203       000000600044668          STEWART, KIYONTA        0091214840000504
6270312013607857097203       000000500044669          STEWART, KIYONTA        0091214840000505
6270550032011010123511698    000000600044670          DOLAN, KIMBERLY         0091214840000506
6270550032011010123511698    000000500044671          DOLAN, KIMBERLY         0091214840000507
6272560749747000286158       000000750044672          SOMERVILLE, RODNEY      0091214840000508
6272560749747000286158       000000500044673          SOMERVILLE, RODNEY      0091214840000509
627086300012119800344        000000750044674          HESTON, GREG            0091214840000510
627086300012119800344        000000500044675          HESTON, GREG            0091214840000511
6271220004961071050924       000000900044676          MCGEE, ANA              0091214840000512
6271220004961071050924       000000500044677          MCGEE, ANA              0091214840000513
6272670841313874195148       000000600044678          MURPHY, CORETTA         0091214840000514
6272670841313874195148       000000500044679          MURPHY, CORETTA         0091214840000515
6272719858441789018          000000900044680          PENCE, DEBBIE           0091214840000516
6272719858441789018          000000500044681          PENCE, DEBBIE           0091214840000517
627052001633003935053983     000000900044682          JEFFREYS, MAUREEN       0091214840000518
6270670064321010094572339    000000750044683          AUGUSTYNE, RHONDA       0091214840000519
6270670064321010094572339    000000500044684          AUGUSTYNE, RHONDA       0091214840000520
62726307927615107937         000000600044685          PRESCOTT, DONALD        0091214840000521
62726307927615107937         000000500044686          PRESCOTT, DONALD        0091214840000522
6270910142676070338          000000750044687          SCHWENDEMAN, JEANEAN    0091214840000523
6270910142676070338          000000500044688          SCHWENDEMAN, JEANEAN    0091214840000524
6271023011998176256          000000750044689          SEIDEL, WILLIAM         0091214840000525
6271023011998176256          000000500044690          SEIDEL, WILLIAM         0091214840000526
627063100277004432954762     000000450044691          HUNTER, CHARISE         0091214840000527
627063100277004432954762     000000500044692          HUNTER, CHARISE         0091214840000528
627053000196000684855228     000000450044693          KEARNS, JAMES           0091214840000529
627053000196000684855228     000000500044694          KEARNS, JAMES           0091214840000530
627251082615000053612708     000000060044695          WHITE, LAWANDA          0091214840000531
627251082615000053612708     000000200044696          WHITE, LAWANDA          0091214840000532
6272223710547520113506       000000600044697          BALESTRIERI, JOSEPH     0091214840000533
6272223710547520113506       000000500044698          BALESTRIERI, JOSEPH     0091214840000534
627111920765286311           000000600044699          HUSKEY, ALISON          0091214840000535
627111920765286311           000000500044700          HUSKEY, ALISON          0091214840000536
6270514005491010132316033    000000900044701          NEVILLE, RAYMOND        0091214840000537
6270514005491010132316033    000000500044702          NEVILLE, RAYMOND        0091214840000538
6271210428826528283200       000000900044703          CAMERON, REGGIE         0091214840000539
6272550719810373203781       000000900044704          JONES, MARK             0091214840000540
6272550719810373203781       000000500044705          JONES, MARK             0091214840000541
6273222716273870872310       000000750044706          RAMSAY, CHERYL          0091214840000542
6273222716273870872310       000000500044707          RAMSAY, CHERYL          0091214840000543
6271119937769312276656       000000750044708          BUSTAMANTE, JILLIAN     0091214840000544
6271119937769312276656       000000500044709          BUSTAMANTE, JILLIAN     0091214840000545
627081000210152305147687     000000750044710          GRAY, DIANE             0091214840000546
627262284279200067345833     000000600044711          BENNETT, MARSHA         0091214840000547
627262284279200067345833     000000500044712          BENNETT, MARSHA         0091214840000548
6271113178574600639826       000000450044713          LARSEN, PHYLLIS         0091214840000549
6273222716270930809316       000000900044714          CAMINO, LUISA           0091214840000550
6270430000960002068543       000000900044715          PARKER, ROBERT          0091214840000551
6270430000960002068543       000000500044716          PARKER, ROBERT          0091214840000552
6272710803540000284787       000000900044717          NUTTING, PAUL           0091214840000553
627073000545196471615936     000000600044718          MCMILLIAN, DAMARRA      0091214840000554
627073000545196471615936     000000500044719          MCMILLIAN, DAMARRA      0091214840000555
6273222716271002269967       000000900044720          POLLOCK, LISA           0091214840000556
627011000138004604570819     000002000044721          EDWARDS, ROBERT         0091214840000557
6270719128139517774          000000600044722          GOODLOE, JENELE         0091214840000558
6270719128139517774          000000500044723          GOODLOE, JENELE         0091214840000559
627071109338700916           000000900044724          MALCOM, JAMES           0091214840000560
6270724035540222501108       000000600044725          PYMAN, MAE              0091214840000561
6271240029718091414618       000000900044726          CHAPMAN, GAY            0091214840000562
62706110060661172650         000000900044727          QUILES, DANTE           0091214840000563
62706110060661172650         000000500044728          QUILES, DANTE           0091214840000564
627064000020003787287907     000000750044729          NELSON, LISA            0091214840000565
627064000020003787287907     000000500044730          NELSON, LISA            0091214840000566
6270515012993398790          000000900044731          BROWN, TYRONE           0091214840000567
6272531770498615086791       000000600044732          OUTLAW, ECOLIA          0091214840000568
6272531770498615086791       000000500044733          OUTLAW, ECOLIA          0091214840000569
6272433794620752234609       000000450044734          DOSWELL, TAMEKA         0091214840000570
6272433794620752234609       000000500044735          DOSWELL, TAMEKA         0091214840000571
6272560749742817176700       000000900044736          WOFFORD, ROBERT         0091214840000572
6272560749742817176700       000000500044737          WOFFORD, ROBERT         0091214840000573
6272711837016304870          000000450044738          JOHNSON, JANINE         0091214840000574
6272711837016304870          000000500044739          JOHNSON, JANINE         0091214840000575
62711190756842006139         000000900044740          WILSON, CORWIN          0091214840000576
6270210003227033748430       000000900044741          TANNACORE, KENNETH      0091214840000577
6270514042605238745219       000000600044742          GREER, MELINDA          0091214840000578
6270631075131010057738932    000000900044743          MALONE, BRANDON         0091214840000579
62707400007802405820919      000000900044744          FARRELL, VINCENT        0091214840000580
6270514042605236954864       000000600044745          MADDEN, MELANIE         0091214840000581
6272654735820003216930       000000600044746          HILL, SHANTEL           0091214840000582
6272654735820003216930       000000500044747          HILL, SHANTEL           0091214840000583
627063000047005561634169     000000600044748          JACKSON, LATOSHIA       0091214840000584
627063000047005561634169     000000500044749          JACKSON, LATOSHIA       0091214840000585
6271211402180537412694       000000900044750          TRAW, DANA              0091214840000586
62722197936310243851         000000600044751          VILLEDA, VIVIANA        0091214840000587
627253175517277072573        000000750044752          HUCKLEBERRY, PORTIA     0091214840000588
6273222716271003648722       000000900044753          TAPIA, MONICA           0091214840000589
627272484289001295845        000000750044754          HURKES, TIFFANY         0091214840000590
627072000326285000200565     000000600044755          WEST, PATRIK            0091214840000591
6270632066635800782203       000000450044756          EMANN, CRAIG            0091214840000592
62704200031466504850         000000600044757          BADER, JON              0091214840000593
627091000022104790089676     000000600044758          POOLE, JAIME            0091214840000594
627091000022104790089676     000000500044759          POOLE, JAIME            0091214840000595
6272631779035990000432465    000000900044760          THEDERS, DENISE         0091214840000596
6272550719811643238795       000000900044761          HARDY, CHELA            0091214840000597
6272560749741219011713       000001500044762          LANGFORD, CORETTA       0091214840000598
6272810768530007401903       000000900044763          KOZICKY, CAROLYN        0091214840000599
627052001633003936858475     000000900044764          RIGGINS, JOHN           0091214840000600
62725198381110542108         000000600044765          WILSON, KAREN           0091214840000601
62707192337811626843         000000750044766          BOYLE, SHERYL           0091214840000602
62706701114210000235814      000000750044767          SAVAGLIO, LOUIS         0091214840000603
6273251808700030084301       000000900044768          HELU, FAILAUGA          0091214840000604
6273011713531000045721       000000900044769          INEGBEDION, SAMUEL      0091214840000605
6273131874580007184609       000000600044770          GONZALES, STEPHANIE     0091214840000606
6272829760590000708113       000000750044771          LOWERY, TINA            0091214840000607
627103000017003042197295     000000900044772          ALBERT, GENE            0091214840000608
6270313127385004493132       000000450044773          BUXTON, MAMI            0091214840000609
627111000025004881417643     000000750044774          WHERRY, VALERIE         0091214840000610
627051000017004351008825     000000750044775          HOLBROOK, TRACY         0091214840000611
6273222716271961055960       000000600044776          THOMAS, LASHUNDA        0091214840000612
6272560749747003620411       000000900044777          VINSON, PRESTON         0091214840000613
6272810775221599364          000000900044778          ARNOLD, ROBERT          0091214840000614
6270514005491010129874119    000000750044779          JONES, SHARONNE         0091214840000615
627111300958262889           000000900044780          KNEPP, KAREN            0091214840000616
6270810094281859299414       000000750044781          SALZ, TIM               0091214840000617
6271221057442504551477       000000600044782          JOHNSON, TASHA          0091214840000618
6271210003580124940454       000000900044783          REID, ROBERT            0091214840000619
6272215728383400033407       000000600044784          ROSADO, YAMILKA         0091214840000620
627031202084009468955858     000000450044785          MONTERROSA, ISABEL      0091214840000621
6270550032011010124382279    000000600044786          COOK, SARA              0091214840000622
6271119006592628425197       000000600044787          VIDAURRE, CARLOS        0091214840000623
6270213000199504669032       000000900044788          TORO, ANGEL             0091214840000624
6271220004966021000093       000000900044789          NAKKASH, SAM            0091214840000625
6271220002479788840958       000000900044790          JAVATE, ROELYN          0091214840000626
6271221052785559434757       000000900044791          ANTRICH, GENE           0091214840000627
627052001633004463477700     000000600044792          COLLINS, SHARON         0091214840000628
6271210003581265860830       000000900044793          CALDIE, DANIEL          0091214840000629
627255077833288102           000000900044794          KASHANGAKI, THOMAS      0091214840000630
627307086633100388           000000900044795          KINCAID, CHRISTOPHER    0091214840000631
627123103729153352712704     000000600044796          MCMILLAN, LESA          0091214840000632
6270670004380300304630       000000600044797          PRICE, MELINDA          0091214840000633
62727397556400001887700      000000600044798          SEVERE, CHELSY          0091214840000634
627051000017004125270847     000000900044799          TOUSSAINT, MICHAEL      0091214840000635
627082000073004163670221     000000450044800          HOLLOWAY, KEISHA        0091214840000636
627053901198134580778006     000000900044801          JONES, CHRISTOPHER      0091214840000637
62725317704908632307728      000000900044802          DAMERON, CHARLES        0091214840000638
6270214079129616006582       000000900044803          MUNOZ, MARIO            0091214840000639
6270312013607860961312       000000900044804          CROWDER, CARLA          0091214840000640
6270759119883506133150       000000600044805          GRANDALL, MONA          0091214840000641
627322281617009000133090     000000900044806          JONES, ROBERT           0091214840000642
6273222716278663632210       000000900044807          SALDANA, APRIL          0091214840000643
637251480181215838           000000900044808          POLITE, MAEGIN          0091214840000644
627083000056964563836        000000600044809          POWERS, JESSICA         0091214840000645
6270611134155148093387       000000450044810          ACKLES, CHRIS           0091214840000646
62725507411122004280859      000000900044811          SPEIGHT, PETRINA        0091214840000647
627064000020003780353870     000000600044812          MCALPIN, WILLIAM        0091214840000648
62725317704930378696         000000450044813          COCKFIELD, TERESA       0091214840000649
6270642079887800102825       000000900044814          CATHEY, DAVID           0091214840000650
6272560749741110846704       000000600044815          HARRIS, TOMMIE          0091214840000651
6273222716271854278877       000000750044816          CROMWELL, DEANN         0091214840000652
6270621023867104081          000000600044817          HARRIS, MICHAEL         0091214840000653
6273222716271791939178       000000450044818          RIVERA, FREDDY          0091214840000654
6270421026944001207338       000000600044819          WARD, STEPHANIE         0091214840000655
627322078464207674055        000000750044820          HERNANDEZ, PAUL         0091214840000656
6271070003274275396011       000000900044821          WRIGHT, CHARLENE        0091214840000657
6270430000961019262929       000000600044822          MILLER, JEREMY          0091214840000658
6271210003581148504622       000000600044823          ABENOJAR, MARYJEAN      0091214840000659
62727107132108452537204      000000750044824          PERSON, CALVIN          0091214840000660
6270550032011040000102941    000000750044825          FARMER, CARSON          0091214840000661
6271220006611213904890       000003250044826          SCARBOROUGH, ANGELA     0091214840000662
627053000196002370053879     000000900044827          WEBB, JAMES             0091214840000663
627067014343613046739        000000900044828          JOHNSON, TOMMY          0091214840000664
627073000545196471750071     000000750044829          GRELK, MISTY            0091214840000665
627065203431002645904        000000600044830          KEY, SHANEIKRA          0091214840000666
6273213707658000397045       000000750044831          HIGA, DEREK             0091214840000667
6270550027071000021727713    000000900044832          ASHTON, MARK            0091214840000668
6272113705458021509085       000000900044833          MORRISON, WALTER        0091214840000669
6270116011002109425          000000900044834          BARTLETT, LOUISE        0091214840000670
6273213797080164590010       000000900044835          MCEWEN, LEIMOMI         0091214840000671
6271210003580591766045       000000900044836          SIMMONS, GABRIELLE      0091214840000672
6270531098770008380775       000000600044837          MANZI, RAYMOND          0091214840000673
62712500002481185340         000000900044838          DUNN, CALVIN            0091214840000674
6272532784011121959710       000000600044839          BAILEY, SHAUNA          0091214840000675
627081000032003540227780     000000600044840          MCVAY, RHONDA           0091214840000676
6273250707604861579907       000000600044841          RYAN, SONJA             0091214840000677
6271031049681017446          000000900044842          DEDMON, RUDOLPH         0091214840000678
6272631828173091868504       000000600044843          BERNARD, YVAR           0091214840000679
627063114506100000017671     000000600044844          BEALE, JEAN             0091214840000680
6272113705458241990783       000000900044845          DEARBORN, BARBARA       0091214840000681
6271213010280003519449       000000900044846          ONATO, CHRISTIE         0091214840000682
627322282603773057           000000900044847          PARKER, CONNIE          0091214840000683
6270620000803000791973867    000000450044848          POWELL, LAWANDA         0091214840000684
6273030879952020086555       000000600044849          MAYS, GLENN             0091214840000685
627053000196000654734191     000000900044850          HOPP, TIMOTHY           0091214840000686
627051000017004350392875     000000600044851          HUDSON, TEONIKA         0091214840000687
627053100300004256997374     000000750044852          ALSTON, SHARKIR         0091214840000688
6270650000902041368929       000000450044853          ALBERT, WANDA           0091214840000689
627091800293182897049835     000000900044854          MCDONOUGH, JESSICA      0091214840000690
6273211719802217210          000000900044855          SHABAZZ, IMANI          0091214840000691
6270631075131010026791492    000000900044856          CHILDS, RENITA          0091214840000692
627242170426122623651        000000900044857          DAMRON, LISA            0091214840000693
6270312013607858873446       000000600044858          GRIFFIN, CARITA         0091214840000694
627111316793296449           000000600044859          SAMPLE, MARY            0091214840000695
62708300005610523854         000000900044860          LEE, JEFFREY            0091214840000696
6270433068267110148860       000000450044861          MOORE, ANTOINE          0091214840000697
62706310215210000133166      000000750044862          SMITH, ANJEANQIUE       0091214840000698
62732528003984248            000000450044863          PENISTON, COURTNEY      0091214840000699
62731309151500626686         000000600044864          HARRIS, KRYSHUNNA       0091214840000700
6270531008500218705708       000000900044865          FRAZIER, LEE            0091214840000701
6270910000198887262148       000000900044866          RAFFAELLE, ANNE         0091214840000702
62712130101507497407         000000900044867          PIERRE, THUYHA          0091214840000703
627252076565760341           000000750044868          WASHINGTON, CHAMEKA     0091214840000704
627063000047005564032441     000000600044869          MOREFIELD, BILLY        0091214840000705
627041205929392781           000000900044870          SWINEHART, STACEY       0091214840000706
6272719870757140010023990    000000750044871          MARTIN, JACQUELINE      0091214840000707
627267083763054872633        000000900044872          GORDON, MARLIN          0091214840000708
6272560749742287535005       000000600044873          SHERROD, MONEKIA        0091214840000709
6271240029713138541341       000000450044874          ADAMS, KIM              0091214840000710
6270620056900407927142       000000900044875          DABBS, DIANNA           0091214840000711
62722127570804300632783151   000000900044876          ROJAS, AUGUSTO          0091214840000712
627042000013130106136315     000000600044877          CRAFT, BEN              0091214840000713
627111000025004789639        000000900044878          MCNEILL, MELODY         0091214840000714
6270514005491010112770495    000000600044879          ROBISON, KAREN          0091214840000715
6271010001875500089601       000000600044880          ZELTNER, SONDRA         0091214840000716
6271020010171633160054       000000450044881          MACKEY, BRANDEN         0091214840000717
6272810814794893161          000000900044882          FISCHER, CHRISTOHER     0091214840000718
6271220002470085382521       000000900044883          MORAN, LYNETTE          0091214840000719
62732327630410016744         000000600044884          BUCKELEW, DEDREANNA     0091214840000720
627081000032003483173726     000000600044885          HULL, WILLIAM           0091214840000721
6272810768530006647108       000000600044886          STUART, SHELTON         0091214840000722
62731407426929441129         000000600044887          HOLMES, JOMONIQUE       0091214840000723
627271291619591617           000000900044888          TISCHBEIN, JOHN         0091214840000724
6272749706812026601267       000000900044889          STOUDER, JASON          0091214840000725
627022300173657003659365     000000750044890          HILL, SABRINA           0091214840000726
6270360761506201056010       000000900044891          PFAU, OLIVER            0091214840000727
627263079276120428574        000000900044892          MATTHEWS, ELIZABETH     0091214840000728
6270212727231854224474       000000750044893          GRAVES, SONYA           0091214840000729
6272910700014852296875       000000600044894          SMITH, JOHN             0091214840000730
627221480807981959026        000000600044895          ATKINSON, EZRA          0091214840000731
6270830001083009595577       000000750044896          HALFACRE, WHITNEY       0091214840000732
627275978048155639           000000900044897          HONEYSETT, ROBERT       0091214840000733
6270213036187000005554       000000450044898          FULLER, ELSTON          0091214840000734
6270711744311008476444       000000450044899          JONES, ANNA             0091214840000735
6272531757245972388          000000600044900          HAYWOOD, MARSHA         0091214840000736
627021000322004830240447     000000600044901          KYRIAKOULIAS, THEONI    0091214840000737
627063000047005501802362     000000600044902          BROYLES, CHRISSY        0091214840000738
627053904483000775340480     000000900044903          WAYNE, JEFFERY          0091214840000739
62724127024601004337         000000900044904          BYRUM, SHANNON          0091214840000740
6272670837630060657036       000000600044905          COLON, INGRID           0091214840000741
6270312013607857749878       000000900044906          LABENSKI, KENNETH       0091214840000742
6273250707601003482526       000000600044907          ENNEN, JENNIFER         0091214840000743
627322172797533265           000000900044908          HASAN, VERA             0091214840000744
6270110001389486818363       000000900044909          GUTIERREZ, JESUS        0091214840000745
627011000138004601957040     000000900044910          LOTT, COLITHIA          0091214840000746
6271070064441857116875       000000600044911          BODIE, CARMEN           0091214840000747
6270810013876902160513       000000750044912          ALLEN, JAMES            0091214840000748
6270519045248003230987       000000900044913          WILLIAMS, ARDITH        0091214840000749
6272739745490001350779       000000900044914          WIESELER, KRIS          0091214840000750
627042100175145804532235     000000600044915          JOHNSON, LAVAYA         0091214840000751
6271221052780495968612       000000900044916          FACKRELL, KRISTINE      0091214840000752
62707491422910064806         000000750044917          SCHUMM, DAVID           0091214840000753
627011000138009515155109     000000600044918          COLON, WILFREDO         0091214840000754
627031302955950624554        000000900044919          GARLOFF, LESLIE         0091214840000755
627041001039149052018012     000000600044920          SWARTZ, DEANDRA         0091214840000756
62727507128802287617         000000750044921          JAKUBIAK, JAMIE         0091214840000757
6272532723550922004122       000000600044922          CREEL, ALICIA           0091214840000758
6273122761820000160534       000000900044923          COLONY, DANIEL          0091214840000759
6270514005491010115696398    000000600044924          GARRISON, LORRE         0091214840000760
6270841014172102692          000000900044925          HOPKINS, CASSANDRA      0091214840000761
6271070021923006601730       000000900044926          MCCABE, MARY            0091214840000762
62712500002497233118         000000900044927          SAKURAI, ANDREW         0091214840000763
62704120055544011228         000000900044928          CHICATELLI, MICHELLE    0091214840000764
6272514813550540284437       000000600044929          BROOKS, ANTHONY         0091214840000765
627111000025004810021314     000000750044930          CASTILLO, CHRISTINA     0091214840000766
6270620056902508292590       000000600044931          REYNOLDS, SHELLY        0091214840000767
627114000093015957796        000000600044932          IVY, MARY               0091214840000768
62722198133515940000343327   000000450044933          NEAL, LAQUAN            0091214840000769
6272110701751155689680       000000450044934          MCLEAN, ANTONIO         0091214840000770
6270550027071000038719182    000000900044935          BORDEAUX, LAISHA        0091214840000771
627064101398100369324        000000450044936          CHARLES, TIA            0091214840000772
6270065000092039673099       000000600044937          JOHNSON, CRYSTAL        0091214840000773
62704210023038265952         000000900044938          HOPKINS, REBECCA        0091214840000774
6270310005031010071523819    000000750044939          MCGINNESS, JODI         0091214840000775
627111000025004789699961     000000900044940          MADISON, MARIA          0091214840000776
627022300173907299047865     000000450044941          BONNER, SARAH           0091214840000777
6270710005055307402593       000000600044942          MURPHY, RACHELLE        0091214840000778
627036001808367606316        000000600044943          ELLIS, KAMYRA           0091214840000779
6270114004959512842149       000000750044944          ANDERSON, NINA          0091214840000780
627211288718700290555650     000000450044945          JOY, BETH               0091214840000781
6270710000131110029399267    000000750044946          KUNTU, MARIE            0091214840000782
627086300012645166506        000000900044947          ICE, RHONDA             0091214840000783
6270749003564869923          000000600044948          DAILEY, BRIAN           0091214840000784
627063100277003772231353     000000900044949          TEAGUE, NICHOLAS        0091214840000785
627021200339009452196287     000000750044950          BOOTH, CHRISTINE        0091214840000786
627121122676153455522976     000000900044951          BELENA, ROWENA          0091214840000787
6271220002470604354563       000000900044952          BUCKLEY, CATHERINE      0091214840000788
627122400724005010014683     000000900044953          JOHNSON, JEFF           0091214840000789
6270654001378001432478       000000900044954          ROBICHAUX, GEORGE       0091214840000790
6270839046600199702          000000900044955          LAMPTON, JESSE          0091214840000791
627253279536404062007618     000000750044956          JOHNSON, YVETTE         0091214840000792
627241270848553001335        000000750044957          POWELL, NATASHA         0091214840000793
6270412005554301048830       000000750044958          MURPHY, JEFFREY         0091214840000794
6270531004651000034877943    000000600044959          LITTLEJOHN, FRED        0091214840000795
6271119937760951318487       000000900044960          LEWIS, APRIL            0091214840000796
6270114000719241468689       000000750044961          PINNEY, SHELLY          0091214840000797
6270631046680055708137       000000600044962          KINSLOW, ERIC           0091214840000798
627311987773103933660        000000900044963          ENSLEY, VERSHON         0091214840000799
627071112260268623           000000600044964          DOYLE, KARLA            0091214840000800
627122101706004656246531     000000900044965          WEST, BRIAN             0091214840000801
6270631006887673233806       000000450044966          SHERICK, ALCINA         0091214840000802
62722138011411000001714661   000000750044967          DOTSON, BRYAN           0091214840000803
6271119937761814361638       000000600044968          CAJAR, RAUL             0091214840000804
6270312013607858361335       000000900044969          NAYLOR, JOEY            0091214840000805
6270260136737917238425       000000600044970          GILL, MAXINE            0091214840000806
62732327435100744146         000000900044971          MCGEE, LONNY            0091214840000807
6270929052786528029801       000000750044972          VLASAK, RICHARD         0091214840000808
6271220004963771456104       000000600044973          HOBBS, AMANDA           0091214840000809
6271221052780743386997       000000900044974          BACCUS, GEORGE          0091214840000810
6270531011215293296156       000000600044975          BELLAMY, LISA           0091214840000811
62702100008902327744         000000600044976          RICHARDSON, DANIELLE    0091214840000812
6270720008052200018289       000000600044977          RUBIO, RICA             0091214840000813
62726317848119329            000000450044978          WELCH, MELVENA          0091214840000814
627244172008000020020701     000000900044979          SHAFFER, ERIC           0091214840000815
627113112995253812           000000600044980          RHODES, EUREKA          0091214840000816
6270631075131010129629351    000000900044981          ALLEN, GARY             0091214840000817
6272724849881158010          000000900044982          HUSTON, KARI            0091214840000818
6270640000170056435231       000000750044983          JOHNSON, SHEILEEN       0091214840000819
6272759710872328046754       000000600044984          WILLIAMS, STACI         0091214840000820
62703100050310123595863      000000900044985          WERT, DAVID             0091214840000821
6270550007700003575942       000000900044986          BRYANT, DIANA           0091214840000822
627311989852343650           000000900044987          HOLMES, TROY            0091214840000823
6270531011215117346635       000000600044988          PATTERSON, CHERYL       0091214840000824
6270212000251010129909220    000000900044989          BRIZAK, MICHAEL         0091214840000825
6272919734700000000615060    000000900044990          PETERSON, LORINANDMARY  0091214840000826
627325072166790950146551     000000900044991          LEAUPEPE, REILA         0091214840000827
6270311000895606706318       000000900044992          MANCHESTER, REBECCA     0091214840000828
6273140883520009876010       000000900044993          LEATHERMAN, RICHARD     0091214840000829
6270212727231800162305       000000600044994          CINTRON, JESSICA        0091214840000830
627051000020100021538359     000000600044995          MATTHEWS, SHARNETTE     0091214840000831
6270540000305303398899       000000900044996          WRIGHT, ARNETRICE       0091214840000832
627051000017004131115718     000000900044997          HARMSEN, CENTRAL        0091214840000833
62723608428553584501         000000600044998          SERVANCE, LAILA         0091214840000834
627307070364000095934040     000000900044999          BAKKE, KIMBERLY         0091214840000835
6270312013607860974778       000000600045000          HARMON, LATAYSHA        0091214840000836
627211691428103521           000000900045001          DASHNAW, JEREMY         0091214840000837
6271111048795301060554       000000750045002          BROWN, TAMEKA           0091214840000838
6270631006885125848106       000000600045003          HERRINGTON, CAROLYN     0091214840000839
62706410844370033774         000000900045004          BROOKS, DAVID           0091214840000840
6271220000300050907231       000000600045005          GREENE, ANNETTE         0091214840000841
6270531011215294091124       000000900045006          WATSON, RENEE           0091214840000842
6272740740371692586          000000900045007          MATTHEWS, LAWANDA       0091214840000843
627111000614675498257        000000600045008          MILLER, HELEN           0091214840000844
6271220006610163741888       000000600045009          WILLIAMS, LAVONDA       0091214840000845
627052001633003939470944     000000600045010          JOHNSON, CHIAKA         0091214840000846
627081000032003481035439     000000900045011          KEY, PATRICIA           0091214840000847
6270211011081010100797134    000000600045012          CURRY, MARSHINA         0091214840000848
6270530002191067671343989    000000600045013          LEONARD, MILTON         0091214840000849
627273974581468920           000000600045014          FORBES, DOUGLAS         0091214840000850
627011900445009516589444     000000900045015          DILLON, YVONNE          0091214840000851
6270641077290254375          000000600045016          HILL, DAVID             0091214840000852
62722147641311480026193174   000000900045017          JACARUSO, JOSEPH        0091214840000853
627051405188160199           000000600045018          STEVENS, ANTHONY        0091214840000854
6272711880810013244410       000000600045019          YATES, SADE             0091214840000855
6270532018143906390757       000000600045020          GREEN, ALEXANDER        0091214840000856
627073000545196363782        000000900045021          MCDONNOUGH, AARON       0091214840000857
6273252720211220613          000000600045022          BERRY, SAUL             0091214840000858
627271274128550211524        000000900045023          LEWIS, CHRISTINA        0091214840000859
6270530002191010137357482    000000450045024          STUCKEY, TIFFANY        0091214840000860
6270710001529996841310813    000000600045025          LARSOK, AMY             0091214840000861
627042000013130104323592     000000900045026          SMITH, ANSON            0091214840000862
62710120186300827786         000000600045027          DRAPER, QUENTION        0091214840000863
627053110400101008513863     000000900045028          FAIR, KEITH             0091214840000864
627322079353398606           000000600045029          PEREZ, TERESA           0091214840000865
627044000037707283677        000000900045030          SIMS, VERONICA          0091214840000866
6270360761506205713504       000000750045031          GALE, TYR0NE            0091214840000867
62726427935010102655         000000900045032          POTTS, ROBERT           0091214840000868
62725317704908630340727      000000900045033          SANDERS, DEMARCO        0091214840000869
6270670064321010069089307    000000900045034          ALFRED, NICOLE          0091214840000870
627053100737126221977        000000900045035          JOHNSON, CONNIE         0091214840000871
62703600180836769497         000000750045036          RAPINE, JANET           0091214840000872
62704220493211474738         000000900045037          AGRUE, BOBBY            0091214840000873
627111000025004810953039     000000750045038          THIRDGILL, RAQUELL      0091214840000874
6272550778887001655895       000000750045039          PLUMMER, LASHEA         0091214840000875
627071103619002874834853     000000600045040          WINTERS, STEVE          0091214840000876
6272550767531117097373       000000450045041          TKAC, KELLY             0091214840000877
6270310005031010129939151    000000750045042          ASHLEY, RICHARD         0091214840000878
6270812033182125196          000000900045043          SMITH, DEANNA           0091214840000879
627041000124959467882        000000900045044          GILLIAM, MARK           0091214840000880
627211178200000002431180     000000900045045          DUFFUS, KEICIA          0091214840000881
627253279536404090013496     000000750045046          TWITTY, RHONDA          0091214840000882
6271211334160211043710       000000900045047          COOLEY, GAIL            0091214840000883
6271119937764400403369       000000900045048          BROOKS, JEFF            0091214840000884
62726318255870251368         000000450045049          STEVENS, RHEA           0091214840000885
627221276370240001951        000000600045050          DRAUGHON, JENINE        0091214840000886
6271221872381021100480       000000900045051          PITERA, MICHAEL         0091214840000887
627044000011016883864        000000600045052          MUMFORD, ANDREA         0091214840000888
627053904483000780055537     000000900045053          BROWN, ULYSSES          0091214840000889
6273130905610048559901       000000900045054          CROUCH, RUDY            0091214840000890
627052001633003936998717     000000900045055          BROOKS, NNEKA           0091214840000891
6270654038750008017611       000000600045056          SMITH, VERONICA         0091214840000892
6272313726913371013545       000000600045057          FOX, JOHN               0091214840000893
6270212003399495765427       000000900045058          GOODE, ANN              0091214840000894
6272110701751303780752       000000600045059          COPLIN, ANGELA          0091214840000895
627263181384323971           000000450045060          THOMAS, CHRISTINA       0091214840000896
627071904779199371175787     000000750045061          PAYNE, DEBRA            0091214840000897
6270260136737919443965       000000900045062          HOLDEN, JEFFREY         0091214840000898
6270749033080000399205       000000900045063          MCNEELY, ROBERT         0091214840000899
6271070014811696679          000000900045064          JONES, SHYLA            0091214840000900
6272412802521385             000000900045065          RAY, JACKIE             0091214840000901
627053904483000780329506     000000900045066          COLLINS, COREY          0091214840000902
627253279536404070004001     000000900045067          HOLLIDAY, SANDRA        0091214840000903
62704400003769321053         000000600045068          WEIDNER, TAMMY          0091214840000904
62727597888600633390         000000900045069          WOODHOUSE, MARK         0091214840000905
6273211752610068074164       000000900045070          COX, PAUL               0091214840000906
6270631006880241176706       000000900045071          DAVIS, ROSALYN          0091214840000907
627011000138004604337405     000000900045072          BAH, GILDAS             0091214840000908
62722127827181320            000000750045073          BAKER, JACQUELYN        0091214840000909
627263079276121184721        000000900045074          DINGLE, TAMARA          0091214840000910
627221374984360808           000000900045075          HOBBINS, WILLIAM        0091214840000911
627063100277003436205861     000000750045076          KUSHNER, RICHARD        0091214840000912
6272360842980397193368       000000600045077          MOORE, CHRISTINA        0091214840000913
6270740000654248537          000000450045078          DINIUS, MICHAEL         0091214840000914
627044000011101566820        000000900045079          NICHOLSON, MARY         0091214840000915
6270631046687966118026       000000450045080          FAVORS, CALVIN          0091214840000916
62724107505681855            000000900045081          GRACE, CASSANDRA        0091214840000917
6270360761506212689761       000000600045082          CATES, LAFAYETTE        0091214840000918
6271220002470970378279       000000900045083          PETTIT, PATTI           0091214840000919
6273149774053976225916       000000900045084          DEAN, FRANCES           0091214840000920
6270531076336266190281       000000900045085          RAY, LOU                0091214840000921
627074000065977901164        000000900045086          GODBY, CAMMIE           0091214840000922
627063100277003772287844     000000900045087          BRUNING, DENISE         0091214840000923
62706200008042493687         000000750045088          ROGERS, DERRICK         0091214840000924
6270670064321010129563873    000000600045089          CARIDE, NELLIE          0091214840000925
627081202759199701454126     000000750045090          HICKS, DAVID            0091214840000926
6273119877864880055424       000000900045091          TILLISON, MIA           0091214840000927
6273222716271004002422       000000900045092          AUXIER, RHONDA          0091214840000928
6272560749747000457981       000000900045093          PELAEZ, KAREN           0091214840000929
6272631795320000031872221    000000600045094          SCHOLL, DONALD          0091214840000930
62724127097416510825510      000000900045095          STRAUSS, MARK           0091214840000931
6272550719811423201876       000000600045096          KING, VERONISS          0091214840000932
6270119005719509074580       000000900045097          MOSCAT, OCTAVIO         0091214840000933
6271221017064687295852       000000900045098          HORNBACK, RODNEY        0091214840000934
6272313726911941017045       000000900045099          KOVALL, SCOTT           0091214840000935
6272532784011196102717       000000900045100          GANTT, CHRISTOPHER      0091214840000936
627255077493301629703        000000900045101          DERR, JOE               0091214840000937
627123000220153658679425     000000750045102          MOSQUEDA, JAVIER        0091214840000938
62706200001955562639         000000600045103          GARTH, BORIS            0091214840000939
6270631006882404534606       000000900045104          EILAND, JOHN            0091214840000940
6272910700011851984438       000000900045105          WALLACK, SHARLENE       0091214840000941
6270749037191010576240       000000900045106          HERSHBERGER, CHERYL     0091214840000942
6270631021522114861230       000000900045107          ANDERSON, JAMES         0091214840000943
627275071288296201618        000000600045108          GREEN, LYNETTE          0091214840000944
6270312076078029876045       000000900045109          GREEN, CHRISTOPHER      0091214840000945
627042206804001646843        000000600045110          BOWERS, LOWELL          0091214840000946
6272422794085018233          000000900045111          RIVERS, MICHAEL         0091214840000947
6272630794091090040128260    000000900045112          WALLACE, SUSAN          0091214840000948
6270530002191010135604302    000000900045113          TAMBEDOU, YAFATOU       0091214840000949
62708420127855142624         000000600045114          CONWAY, VALARIE         0091214840000950
6270531104001010085202090    000000900045115          PAGE, ANDREA            0091214840000951
6272840853750064595499       000000750045116          COLEMAN, BRENDA         0091214840000952
6271119006594231098719       000000900045117          CLARK, MARYANN          0091214840000953
627044000804040102176867     000000900045118          ARMSTRONG, VERA         0091214840000954
6271220002475255525981       000000750045119          MOEVAO, UPUMAO          0091214840000955
6270710005055308182376       000000600045120          WRIGHT, ASHAKI          0091214840000956
62725507557688810500024      000000750045121          WILSON, NICHOLE         0091214840000957
6270212000251010111938092    000000600045122          WHITEHEAD, KIM          0091214840000958
627102000021103675424958     000000900045123          HATCHER, BOBBY          0091214840000959
6273222716278710802485       000000900045124          AGUIRRE, RUBEN          0091214840000960
62707192330710350551         000000750045125          EL-AMIN, SHEILA         0091214840000961
6272110701751304882060       000000900045126          CONRAD, KATRINA         0091214840000962
6270642047035339270541       000000600045127          HENDRIX, JACKIE         0091214840000963
6271220002471736224344       000000900045128          GALLO, VIOLET           0091214840000964
6270514005491010124480113    000000600045129          BORMAN, RETH            0091214840000965
627211177133222391           000000600045130          SHAW, ARLENE            0091214840000966
627111000025004794707068     000000600045131          PATTERSON, TERRANCE     0091214840000967
627063000047005565158162     000000900045132          JOHNS, ROBERT           0091214840000968
6272631913870145964296       000000900045133          LANIER, FOY             0091214840000969
62710120568110744573400      000000750045134          MITCHELL, DEAH          0091214840000970
62707500104750217492         000000600045135          SCARBOROUGH, ROKIYYAH   0091214840000971
627111000025004787764018     000000750045136          WEEMS, HANNAH           0091214840000972
62725317704908615111379      000000900045137          MCKIVER, REGINALD       0091214840000973
6270422077357550559327       000000450045138          MCCONEHEA, KEVIN        0091214840000974
6271031048746987350          000000900045139          BUCKNER, LOWELL         0091214840000975
6272223807579136             000000600045140          SPROWL, BILLY           0091214840000976
627083000056019811057        000000600045141          VANWIEREN, JENNY        0091214840000977
6270712121288577173          000000900045142          STEDMAN, ROBERT         0091214840000978
627307070267765522002490     000000900045143          CASIAS, AMIE            0091214840000979
6273250707604902848211       000000900045144          WHALA, GREGORY          0091214840000980
627072000326693389850        000000600045145          HOLLEY, MICHAEL         0091214840000981
627081000032003483883799     000000600045146          MCINTYRE, CANDICE       0091214840000982
6273110805730003390609       000000600045147          ABREU, JOHNNIE          0091214840000983
627053000196691206006        000000750045148          GALLOWAY, SAMMY         0091214840000984
6273110790500011710003       000000750045149          JOHNSON, DAMONICA       0091214840000985
62727198483255008510         000000900045150          HARRIS, DELOIS          0091214840000986
6271111048795730597152       000000600045151          PEYTON, CLAYNISHA       0091214840000987
6271210428821011221726       000000900045152          LEMELLE, SHEILA         0091214840000988
6272631779032990000208093    000000600045153          DANIELS, SEBRENA        0091214840000989
6270420003984008007184       000000900045154          STURGILL, RONALD        0091214840000990
6272113702310158001850       000000750045155          LAGACE, ERNEST          0091214840000991
627254074468287904           000000450045156          MCKINNEY, PAMELA        0091214840000992
6270312013607858240034       000000900045157          JONES, ROSALIND         0091214840000993
6271210428821342127436       000000900045158          ARMSTRONG, NIKIMA       0091214840000994
62707500119926605673         000000600045159          HYNES, KATHLEEN         0091214840000995
627275071288289204399        000000600045160          SMITH, CONNIE           0091214840000996
627253978756487006054945     000000900045161          HIATT, PARMA            0091214840000997
6272111701142220151934       000000900045162          ROWE, NORMA             0091214840000998
627111000025004778176411     000000750045163          HALL, JULIA             0091214840000999
6270212000251010135126369    000000600045164          PARKER, RACHEL          0091214840001000
627091000022196620392551     000000900045165          BEYEL, CHARLENE         0091214840001001
627111000025004772629252     000000900045166          SMALL, SANDY            0091214840001002
62702100008969788473         000000900045167          RODRIGUEZ, PATRICIA     0091214840001003
6270842012940103392139       000000600045168          CLARK, TOMONICA         0091214840001004
6271119054340133892          000000750045169          RUSHING, RODNEY         0091214840001005
627263178452800000074630     000000600045170          BRYANT, DANIEL          0091214840001006
6270212000251000114498387    000000600045171          SEALY, JAMES            0091214840001007
6270810002104512002397       000000450045172          PRIEST, ANGELA          0091214840001008
6271210428820117904367       000000900045173          LAVELL, ANTOINETTE      0091214840001009
62732327407624743221         000000900045174          KEALAIKI, PAMELA        0091214840001010
62721117031803980009694      000000900045175          STJOHN, MARY            0091214840001011
6271240029715052032322       000000900045176          FOX, RANDON             0091214840001012
627122101706004674769087     000000750045177          HILLYER, MARY           0091214840001013
6270310005031010061335512    000000900045178          CENTIMOLE, CHARLES      0091214840001014
6270212727231854898641       000000600045179          GONZALEZ, ELIZABETH     0091214840001015
627242077312723114           000000900045180          SHROUT, SANDRA          0091214840001016
6271119937761880306098       000000600045181          MCQUEEN, BRIAN          0091214840001017
6271119937763942722865       000000900045182          BRADLEY, CINDY          0091214840001018
62701107515062104984604      000000750045183          BILLON, KINEROL         0091214840001019
627052102901433772           000000750045184          WELCH, CHRIS            0091214840001020
6271131106121601818154       000000900045185          HOGAN, MILTON           0091214840001021
6272111701013860028090       000000900045186          KIREY, RICK             0091214840001022
6272514807381813077          000000900045187          VELORIA, ANALIZA        0091214840001023
6271221052785635829632       000000900045188          MONTENEGRO, GEORGE      0091214840001024
627211370707030750113        000000600045189          HOLM, GREGORY           0091214840001025
6271210003581086145159       000000900045190          GARCIA, RAUL            0091214840001026
6270260136737918941712       000000900045191          STEWART, ANDRE          0091214840001027
62702600758227002722         000000900045192          SANTOS, ANGEL           0091214840001028
6273222716271801605495       000000900045193          ABULENCIA, IVAN         0091214840001029
6272759710871128062224       000000900045194          GEORGE, CORY            0091214840001030
6270620000801010135593125    000000900045195          RESENDEZ, JOSE          0091214840001031
627125000105153557363188     000000600045196          MAUGHAN, SABRINA        0091214840001032
627073000176003793301482     000000750045197          LEHMAN, RENEE           0091214840001033
6270319186531104002884       000000600045198          ROMMEL, BOB             0091214840001034
627021205499561231604        000000900045199          LEBLANC, CATHE          0091214840001035
6270531011215290764485       000000900045200          WARD, SHEILA            0091214840001036
62705190376102412113347      000000900045201          HELBUS, GREGORY         0091214840001037
6270829075617061501          000000900045202          KINION, MICAHEL         0091214840001038
627053200983871050167        000000600045203          WEBSTER, MARILYN        0091214840001039
6271119014676502962          000000900045204          EARL, OCTAVIA           0091214840001040
6270212727231814179312       000000750045205          WATERS, STEVEN          0091214840001041
627253978617413001012655     000000600045206          CAIN, TISHAWBAY         0091214840001042
627101000187145590429588     000000900045207          CURTIS, KENNETH         0091214840001043
627101001351532088           000000900045208          JEX, KEITH              0091214840001044
6270830023427140792552       000000900045209          ABBOTT, JEREMY          0091214840001045
62731407426928946766         000000600045210          VINICOMBE, GINA         0091214840001046
62723117685522091006         000000900045211          BLACK, AMIRRA           0091214840001047
6270223078201110014813       000000750045212          WERNER, GARY            0091214840001048
6272712918264517949          000000900045213          HALL, FAITH             0091214840001049
627251483023740015877        000000600045214          MAYS, CRYSTAL           0091214840001050
